S01900005061747465726E2047656E657261746F722E7372656366
S11300000C945A000C9477000C9477000C945B01C8
S11300100C940B020C94BA020C9477000C947700A5
S11300200C9477000C9477000C9477000C94F402F1
S11300300C9477000C9477000C9477000C94770060
S11300400C9477000C9477000C9477000C94770050
S11300500C9477000C9477000C9477000C94770040
S11300600C9477000C9477000C9477000C94770030
S11300700C9477000C9477000C9477000C94770020
S11300800C9477000C9477000C9477000C94770010
S11300900C9477000C9477000C9477000C94770000
S11300A00C9477000C9477000C9477000C947700F0
S11300B00C94770011241FBECFEFD8E0DEBFCDBF74
S11300C011E0A0E0B1E0E4E4F9E002C005900D9293
S11300D0A830B107D9F721E0A8E0B1E001C01D9232
S11300E0A131B207E1F70E9479000C94A0040C94AA
S11300F00000FF920F931F93CF93DF93CDB7DEB72A
S1130100F89484E290E02EEFFC01208385E290E0F5
S11301102FEFFC01208387E290E0FC01108288E24B
S113012090E02FEFFC0120838AE290E02FE7FC01AE
S113013020838BE290E02FE7FC0120838DE290E0A6
S11301402FEFFC0120838EE290E02EEFFC01208350
S113015088E690E027E0FC0120838BE690E021E034
S1130160FC0120838CE690E021E0FC0120838DE6F5
S113017090E020E8FC01208388E890E02FEF3FE046
S1130180FC013183208381E890E028E0FC01208396
S11301908FE690E022E0FC01208381E890E023E0F8
S11301A0FC012083789480910C01882F90E08130A9
S11301B0910559F18230910509F441C0892B09F068
S11301C060C080910F01082F10E080910F01882FEB
S11301D090E080509F4FFC01F0800E9442018F0DFF
S11301E0282F2F73C80180509F4FFC0120838BE27E
S11301F090E020910F01222F30E020503F4FF90171
S113020020812095FC0120833CC080910F01082FA0
S113021010E00E944201800F911F8770907899230B
S113022024F40197886F9F6F019680930F018BE2EE
S113023090E020910F012095FC01208322C0809141
S11302401001082F10E00E944201800F911F81705D
S11302509078992324F401978E6F9F6F0196809371
S1130260100180911001882331F48BE290E02FEE8D
S1130270FC01208305C08BE290E02FEDFC0120837C
S1130280000091CFCF93DF93CDB7DEB780910A0101
S1130290882361F010920A0180910B01882319F0E0
S11302A081E090E005C08FEF9FEF02C080E090E016
S11302B0DF91CF9108951F920F9200905F000F92EB
S11302C011242F933F934F935F936F937F938F9357
S11302D09F93AF93BF93EF93FF93CF93DF93CDB7E8
S11302E0DEB72E97DEBFCDBF80910A01882319F4B3
S11302F081E080930B0181E080930A0180E090E02B
S1130300A6E1B3E489839A83AB83BC8320E030E025
S11303104AE755E469817A818B819C810E94E303D9
S1130320DC01CB018D839E83AF83B88720E030E06E
S113033040E85FE36D817E818F8198850E945D0333
S113034088232CF481E090E09A8789873FC020E0DD
S11303503FEF4FE757E46D817E818F8198850E943E
S1130360DE0318164CF520E030E040E251E46981E8
S11303707A818B819C810E94E303DC01CB01BC0167
S1130380CD010E946203DC01CB019A8789870FC0EB
S113039080E991E09C878B878B859C850197F1F799
S11303A09C878B8789859A8501979A878987898510
S11303B09A85892B69F714C06D817E818F81988518
S11303C00E946203DC01CB019A87898789859A851B
S11303D09E878D878D859E850197F1F79E878D87F2
S11303E000002E960FB6F894DEBF0FBECDBFDF918E
S11303F0CF91FF91EF91BF91AF919F918F917F9199
S11304006F915F914F913F912F910F9000925F00F8
S11304100F901F9018951F920F9200905F000F92FB
S113042011242F933F934F935F936F937F938F93F5
S11304309F93AF93BF93EF93FF93CF93DF93CDB786
S1130440DEB72E97DEBFCDBF80910A01882311F459
S113045010920B0181E080930A0180E090E0A6E114
S1130460B3E489839A83AB83BC8320E030E04AE71A
S113047055E469817A818B819C810E94E303DC01CC
S1130480CB018D839E83AF83B88720E030E040E8C2
S11304905FE36D817E818F8198850E945D0388234F
S11304A02CF481E090E09A8789873FC020E03FEFF9
S11304B04FE757E46D817E818F8198850E94DE032A
S11304C018164CF520E030E040E251E469817A816D
S11304D08B819C810E94E303DC01CB01BC01CD0133
S11304E00E946203DC01CB019A8789870FC080E9EF
S11304F091E09C878B878B859C850197F1F79C877E
S11305008B8789859A8501979A87898789859A85B2
S1130510892B69F714C06D817E818F8198850E9433
S11305206203DC01CB019A87898789859A859E8736
S11305308D878D859E850197F1F79E878D870000B5
S11305402E960FB6F894DEBF0FBECDBFDF91CF91CC
S1130550FF91EF91BF91AF919F918F917F916F9197
S11305605F914F913F912F910F9000925F000F90F8
S11305701F9018951F920F9200905F000F92112404
S11305802F933F935F936F937F938F939F93AF9337
S1130590BF93CF93DF93CDB7DEB780910D0188234E
S11305A061F480910C01882F90E0019623E030E003
S11305B0B9010E94780480930C0180910D0180950B
S11305C080930D010000DF91CF91BF91AF919F9176
S11305D08F917F916F915F913F912F910F90009236
S11305E05F000F901F9018951F920F9200905F006C
S11305F00F9211242F933F938F939F93EF93FF9325
S1130600CF93DF93CDB7DEB7F8941092090110921F
S1130610080129C080910901882F90E080509F4FE4
S1130620FC018081882F90E020910E01222F30E080
S113063002C0959587952A95E2F7817099272091B4
S11306400901222F30E002C0880F991F2A95E2F792
S1130650982F80910801892B8093080180910901CA
S11306608F5F8093090180910901883098F285E2B7
S113067090E0209108012E7FFC01208380910E01DF
S1130680882F90E0019687709078992324F401973D
S1130690886F9F6F019680930E0178940000DF911C
S11306A0CF91FF91EF919F918F913F912F910F9057
S11306B000925F000F901F9018950E94910308F418
S11306C081E008950E94BD0388F09F5798F0B92FE8
S11306D09927B751B0F0E1F0660F771F881F991F73
S11306E01AF0BA95C9F714C0B13091F00E94D7033B
S11306F0B1E008950C94D703672F782F8827B85F4B
S113070039F0B93FCCF3869577956795B395D9F7CA
S11307103EF490958095709561957F4F8F4F9F4FD4
S11307200895990F0008550FAA0BE0E8FEEF16167E
S11307301706E807F907C0F012161306E407F507D1
S113074098F0621B730B840B950B39F40A2661F045
S1130750232B242B252B21F408950A2609F4A140E8
S1130760A6958FEF811D811D089557FD9058440F64
S1130770551F59F05F3F71F04795880F97FB991FFC
S113078061F09F3F79F087950895121613061406B9
S1130790551FF2CF4695F1DF08C016161706180646
S11307A0991FF1CF86957105610508940895E89421
S11307B0BB2766277727CB0197F908950E949103F9
S11307C008F48FEF08950E94F6030C9467040E94C6
S11307D0590438F00E94600420F0952311F00C9421
S11307E050040C94560411240C94D8030E94B503AD
S11307F070F3959FC1F3950F50E0551F629FF00170
S1130800729FBB27F00DB11D639FAA27F00DB11D88
S1130810AA1F649F6627B00DA11D661F829F222711
S1130820B00DA11D621F739FB00DA11D621F839F98
S1130830A00D611D221F749F3327A00D611D231F6E
S1130840849F600D211D822F762F6A2F11249F57BC
S113085050409AF0F1F088234AF0EE0FFF1FBB1FBF
S1130860661F771F881F91505040A9F79E3F51057E
S113087080F00C9450040C94D8035F3FE4F3983E4A
S1130880D4F3869577956795B795F795E7959F5F28
S1130890C1F7FE2B880F911D9695879597F90895BA
S11308A097F99F6780E870E060E008959FEF80EC1F
S11308B0089500240A9416161706180609060895C2
S11308C000240A9412161306140605060895092E28
S11308D00394000C11F4882352F0BB0F40F4BF2B97
S11308E011F460FF04C06F5F7F4F8F4F9F4F0895D7
S11308F097FB072E16F4009407D077FD09D00E94C9
S11309008C0407FC05D03EF4909581959F4F089583
S1130910709561957F4F0895AA1BBB1B51E107C0D9
S1130920AA1FBB1FA617B70710F0A61BB70B881F7B
S1130930991F5A95A9F780959095BC01CD0108950A
S1070940F894FFCF55
S10B094465573BF682003455AF
S9030000FC
