:100000000C945A000C9477000C9477000C94FD0526
:100010000C94AD060C94E7060C9477000C947700D2
:100020000C9477000C9477000C9477000C9496074E
:100030000C9477000C9477000C9477000C94770064
:100040000C9477000C9477000C9477000C94770054
:100050000C9477000C9477000C9477000C94770044
:100060000C9477000C9477000C9477000C94770034
:100070000C9477000C9477000C9477000C94770024
:100080000C9477000C9477000C9477000C94770014
:100090000C9477000C9477000C9477000C94770004
:1000A0000C9477000C9477000C9477000C947700F4
:1000B0000C94770011241FBECFEFD8E0DEBFCDBF78
:1000C00011E0A0E0B1E0EAE8F2E102C005900D9293
:1000D000A830B107D9F721E0A8E0B1E001C01D9236
:1000E000A131B207E1F70E9479000C9443090C9406
:1000F0000000FF920F931F93CF93DF93CDB7DEB72E
:10010000C256D1090FB6F894DEBF0FBECDBFF8942A
:1001100084E290E02EEFFC01208385E290E02EEF58
:10012000FC01208387E290E02EEFFC01208388E22F
:1001300090E02EEFFC0120838AE290E02FE7FC01A3
:1001400020838BE290E02FE7FC0120838DE290E09A
:100150002FEFFC0120838EE290E02FEFFC01208343
:1001600088E690E027E0FC0120838BE690E021E028
:10017000FC0120838CE690E021E0FC0120838DE6E9
:1001800090E020E8FC01208388E890E020E03FEF49
:10019000FC013183208381E890E028E0FC0120838A
:1001A0008FE690E022E0FC01208381E890E023E0EC
:1001B000FC012083789480E090E0AAE7B4E4898F82
:1001C0009A8FAB8FBC8F20E030E04AE755E4698D11
:1001D0007A8D8B8D9C8D0E948608DC01CB018D8FE2
:1001E0009E8FAF8FB8A320E030E040E85FE36D8DD5
:1001F0007E8D8F8D98A10E94000888232CF481E0C9
:1002000090E09AA389A33FC020E03FEF4FE757E477
:100210006D8D7E8D8F8D98A10E94810818164CF5EA
:1002200020E030E040E251E4698D7A8D8B8D9C8D29
:100230000E948608DC01CB01BC01CD010E940508AB
:10024000DC01CB019AA389A30FC080E991E09CA3B4
:100250008BA38BA19CA10197F1F79CA38BA389A1F0
:100260009AA101979AA389A389A19AA1892B69F7D9
:1002700014C06D8D7E8D8F8D98A10E940508DC01C4
:10028000CB019AA389A389A19AA19EA38DA38DA135
:100290009EA10197F1F79EA38DA380910C01882F59
:1002A00090E08130910509F49BC28230910509F4F8
:1002B000D3C2892B09F087C480911001082F10E068
:1002C0000E94E405800F911F81709078992324F497
:1002D00001978E6F9F6F019680931001809110019E
:1002E000882309F002C185E290E021EEFC01208321
:1002F0008EE290E02EEFFC01208380E090E0AAE700
:10030000B3E489879A87AB87BC8720E030E04AE76F
:1003100055E469857A858B859C850E948608DC0179
:10032000CB0189AB9AABABABBCAB20E030E040E893
:100330005FE369A97AA98BA99CA90E940008882378
:100340002CF481E090E09EAB8DAB3FC020E03FEF0E
:100350004FE757E469A97AA98BA99CA90E94810853
:1003600018164CF520E030E040E251E469857A85CA
:100370008B859C850E948608DC01CB01BC01CD01E8
:100380000E940508DC01CB019EAB8DAB0FC080E95C
:1003900091E098AF8FAB8FA998AD0197F1F798AF27
:1003A0008FAB8DA99EA901979EAB8DAB8DA99EA900
:1003B000892B69F714C069A97AA98BA99CA90E9405
:1003C0000508DC01CB019EAB8DAB8DA99EA99AAF30
:1003D00089AF89AD9AAD0197F1F79AAF89AF85E200
:1003E00090E02FEFFC0120838EE290E02FEFFC01E4
:1003F000208380E090E0AAE7B3E489839A83AB830B
:10040000BC8320E030E04AE755E469817A818B8142
:100410009C810E948608DC01CB018FA398A7A9A725
:10042000BAA720E030E040E85FE36FA178A589A596
:100430009AA50E94000888232CF481E090E09CA7F4
:100440008BA73FC020E03FEF4FE757E46FA178A5AF
:1004500089A59AA50E94810818164CF520E030E085
:1004600040E251E469817A818B819C810E948608F7
:10047000DC01CB01BC01CD010E940508DC01CB01F0
:100480009CA78BA70FC080E991E09EA78DA78DA5A3
:100490009EA50197F1F79EA78DA78BA59CA5019717
:1004A0009CA78BA78BA59CA5892B69F714C06FA16E
:1004B00078A589A59AA50E940508DC01CB019CA717
:1004C0008BA78BA59CA598AB8FA78FA598A9019703
:1004D000F1F798AB8FA78BE290E02BE230E0F901C7
:1004E00020812F7BFC0120836EC385E290E021EF09
:1004F000FC0120838EE290E02FEFFC01208380E05E
:1005000090E0AAE7B3E4898B9A8BAB8BBC8B8E010E
:100510000B5B1F4F20E030E04AE755E469897A8998
:100520008B899C890E948608DC01CB01F8018083BD
:100530009183A283B383CE018B5B9F4F20E030E099
:1005400040E85FE3FC0160817181828193810E94B8
:10055000000888234CF4CE01875B9F4F21E030E0F8
:10056000FC013183208369C0CE018B5B9F4F20E06B
:100570003FEF4FE757E4FC016081718182819381F5
:100580000E94810818160CF046C020E030E040E2DE
:1005900051E469897A898B899C890E948608DC01EB
:1005A000CB018E01075B1F4FBC01CD010E940508E6
:1005B000DC01CB01F8019183808324C0CE01855BEF
:1005C0009F4F20E931E0FC0131832083CE01855B20
:1005D0009F4FFC01808191810197F1F79E01255B7E
:1005E0003F4FF90191838083CE01875B9F4F9E012E
:1005F000275B3F4FF9012081318121503109FC01F6
:1006000031832083CE01875B9F4FFC0180819181E4
:10061000892BA1F62CC08E01075B1F4FCE018B5B8F
:100620009F4FFC0160817181828193810E94050846
:10063000DC01CB01F80191838083CE01835B9F4F66
:100640009E01275B3F4FF90120813181FC013183FD
:100650002083CE01835B9F4FFC01808191810197B4
:10066000F1F79E01235B3F4FF9019183808385E27F
:1006700090E02FEFFC0120838EE290E02FEFFC0151
:10068000208380E090E0AAE7B3E48D839E83AF836C
:10069000B88720E030E04AE755E46D817E818F81A4
:1006A00098850E948608DC01CB018BAF9CAFADAF73
:1006B000BEAF20E030E040E85FE36BAD7CAD8DADD8
:1006C0009EAD0E940008882344F421E030E0CE0172
:1006D000CF96FC01318320835FC020E03FEF4FE7DE
:1006E00057E46BAD7CAD8DAD9EAD0E9481081816B0
:1006F0000CF044C020E030E040E251E46D817E81A6
:100700008F8198850E948608DC01CB01BC01CD0158
:100710000E940508DC01CB019E01215C3F4FF901DD
:100720009183808323C0CE018F5B9F4F20E931E00E
:10073000FC0131832083CE018F5B9F4FFC018081C0
:1007400091810197F1F79E012F5B3F4FF901918352
:100750008083CE01CF96FC01808191819C01215044
:100760003109CE01CF96FC0131832083CE01CF9693
:10077000FC0180819181892BB1F628C06BAD7CADE5
:100780008DAD9EAD0E940508DC01CB019E01215C70
:100790003F4FF90191838083CE018D5B9F4F9E0176
:1007A000215C3F4FF90120813181FC01318320839D
:1007B000CE018D5B9F4FFC01808191810197F1F704
:1007C0009E012D5B3F4FF901918380838BE290E086
:1007D0002BE230E0F90120812074FC012083F3C179
:1007E00080910F01082F10E080910F01882F90E079
:1007F00080509F4FFC01F0800E94E4052F2D280FB0
:10080000C80180509F4FFC01208385E290E0209139
:100810000F01222F30E020503F4FF9012081209519
:10082000220FFC0120838EE290E020910F01222F05
:1008300030E020503F4FF9012081222F30E02095F9
:100840003095359527953595279535952795359587
:100850002795FC012083B7C180910F01082F10E07C
:100860000E94E405800F911F87709078992324F4EB
:100870000197886F9F6F019680930F0185E290E04A
:1008800020910F01422F50E021E030E002C0220F02
:10089000331F4A95E2F72095220FFC0120838EE258
:1008A00090E020910F01422F50E021E030E002C0A3
:1008B000220F331F4A95E2F72095309535952795FD
:1008C000359527953595279535952795FC012083F6
:1008D00080E090E0AAE7B3E48D8B9E8BAF8BB88F5E
:1008E0008E01075A1F4F20E030E04AE755E46D893A
:1008F0007E898F89988D0E948608DC01CB01F801E2
:1009000080839183A283B383CE01875A9F4F20E0D7
:1009100030E040E85FE3FC01608171818281938176
:100920000E94000888234CF4CE01835A9F4F21E097
:1009300030E0FC013183208369C0CE01875A9F4F8C
:1009400020E03FEF4FE757E4FC0160817181828135
:1009500093810E94810818160CF046C020E030E018
:1009600040E251E46D897E898F89988D0E948608C6
:10097000DC01CB018E01035A1F4FBC01CD010E9447
:100980000508DC01CB01F8019183808324C0CE01EE
:10099000815A9F4F20E931E0FC0131832083CE0151
:1009A000815A9F4FFC01808191810197F1F79E014F
:1009B000215A3F4FF90191838083CE01835A9F4F83
:1009C0009E01235A3F4FF901208131812150310985
:1009D000FC0131832083CE01835A9F4FFC0180812B
:1009E0009181892BA1F62CC08E01035A1F4FCE0195
:1009F000875A9F4FFC0160817181828193810E949F
:100A00000508DC01CB01F80191838083CE018F5969
:100A10009F4F9E01235A3F4FF90120813181FC01F4
:100A200031832083CE018F599F4FFC0180819181BA
:100A30000197F1F79E012F593F4FF9019183808370
:100A400085E290E02FEFFC0120838EE290E02FEF13
:100A5000FC01208380E090E0AAE7B3E48D879E87C5
:100A6000AF87B88B8E01015B1F4F20E030E04AE773
:100A700055E46D857E858F8598890E948608DC0106
:100A8000CB01F80180839183A283B383CE01815B84
:100A90009F4F20E030E040E85FE3FC01608171811E
:100AA000828193810E94000888234CF4CE018D5AE4
:100AB0009F4F21E030E0FC013183208369C0CE01EB
:100AC000815B9F4F20E03FEF4FE757E4FC016081DF
:100AD0007181828193810E94810818160CF046C0B2
:100AE00020E030E040E251E46D857E858F85988975
:100AF0000E948608DC01CB018E010D5A1F4FBC01FC
:100B0000CD010E940508DC01CB01F80191838083AF
:100B100024C0CE018B5A9F4F20E931E0FC01318384
:100B20002083CE018B5A9F4FFC01808191810197D8
:100B3000F1F79E012B5A3F4FF90191838083CE013B
:100B40008D5A9F4F9E012D5A3F4FF90120813181CF
:100B500021503109FC0131832083CE018D5A9F4FF2
:100B6000FC0180819181892BA1F62CC08E010D5A48
:100B70001F4FCE01815B9F4FFC016081718182819B
:100B800093810E940508DC01CB01F80191838083E9
:100B9000CE01895A9F4F9E012D5A3F4FF901208166
:100BA0003181FC0131832083CE01895A9F4FFC01A2
:100BB000808191810197F1F79E01295A3F4FF901F8
:100BC00091838083000069CBCF93DF93CDB7DEB7ED
:100BD00080910A01882361F010920A0180910B0133
:100BE000882319F081E090E005C08FEF9FEF02C0ED
:100BF00080E090E0DF91CF9108951F920F920090D6
:100C00005F000F9211242F933F934F935F936F9345
:100C10007F938F939F93AF93BF93EF93FF93CF9364
:100C2000DF93CDB7DEB72E97DEBFCDBF80910A012F
:100C3000882319F481E080930B0181E080930A01FD
:100C400080E090E0A8ECB2E489839A83AB83BC8314
:100C500020E030E04AE755E469817A818B819C810C
:100C60000E948608DC01CB018D839E83AF83B88709
:100C700020E030E040E85FE36D817E818F819885E0
:100C80000E94000888232CF481E090E09A878987ED
:100C90003FC020E03FEF4FE757E46D817E818F81B9
:100CA00098850E94810818164CF520E030E040E25B
:100CB00051E469817A818B819C810E948608DC01E4
:100CC000CB01BC01CD010E940508DC01CB019A8754
:100CD00089870FC080E991E09C878B878B859C85F5
:100CE0000197F1F79C878B8789859A8501979A8769
:100CF000898789859A85892B69F714C06D817E81E2
:100D00008F8198850E940508DC01CB019A8789872D
:100D100089859A859E878D878D859E850197F1F7B8
:100D20009E878D8700002E960FB6F894DEBF0FBE0B
:100D3000CDBFDF91CF91FF91EF91BF91AF919F9187
:100D40008F917F916F915F914F913F912F910F9074
:100D500000925F000F901F9018951F920F920090C5
:100D60005F000F9211242F933F935F936F937F93B4
:100D70008F939F93AF93BF93CF93DF93CDB7DEB79E
:100D800080910D01882361F480910C01882F90E0FF
:100D9000019623E030E0B9010E941B0980930C0109
:100DA00080910D01809580930D010000DF91CF911E
:100DB000BF91AF919F918F917F916F915F913F9183
:100DC0002F910F9000925F000F901F9018951F9227
:100DD0000F9200905F000F9211242F933F934F9337
:100DE0005F936F937F938F939F93AF93BF93EF9393
:100DF000FF93CF93DF93CDB7DEB72E97DEBFCDBF86
:100E000080910A01882311F410920B0181E08093F4
:100E10000A0180E090E0A8ECB2E489839A83AB8376
:100E2000BC8320E030E04AE755E469817A818B8118
:100E30009C810E948608DC01CB018D839E83AF8359
:100E4000B88720E030E040E85FE36D817E818F81EC
:100E500098850E94000888232CF481E090E09A870E
:100E600089873FC020E03FEF4FE757E46D817E81E7
:100E70008F8198850E94810818164CF520E030E09B
:100E800040E251E469817A818B819C810E948608CD
:100E9000DC01CB01BC01CD010E940508DC01CB01C6
:100EA0009A8789870FC080E991E09C878B878B8523
:100EB0009C850197F1F79C878B8789859A85019797
:100EC0009A87898789859A85892B69F714C06D81EE
:100ED0007E818F8198850E940508DC01CB019A876D
:100EE000898789859A859E878D878D859E850197BF
:100EF000F1F79E878D8700002E960FB6F894DEBF1F
:100F00000FBECDBFDF91CF91FF91EF91BF91AF9118
:100F10009F918F917F916F915F914F913F912F9111
:100F20000F9000925F000F901F9018951F920F92E4
:100F300000905F000F9211242F933F938F939F9304
:100F4000EF93FF93CF93DF93CDB7DEB7F894109272
:100F500009011092080129C080910901882F90E0B1
:100F600080509F4FFC018081882F90E020910E01DE
:100F7000222F30E002C0959587952A95E2F781707F
:100F8000992720910901222F30E002C0880F991F74
:100F90002A95E2F7982F80910801892B8093080108
:100FA000809109018F5F8093090180910901883048
:100FB00098F28BE290E0209108012F732095FC01BC
:100FC000208380910E01882F90E0019687709078A1
:100FD000992324F40197886F9F6F019680930E01E7
:100FE00078940000DF91CF91FF91EF919F918F91C5
:100FF0003F912F910F9000925F000F901F901895D6
:101000000E94340808F481E008950E94600888F086
:101010009F5798F0B92F9927B751B0F0E1F0660FBC
:10102000771F881F991F1AF0BA95C9F714C0B130FD
:1010300091F00E947A08B1E008950C947A08672F25
:10104000782F8827B85F39F0B93FCCF3869577952C
:101050006795B395D9F73EF4909580957095619515
:101060007F4F8F4F9F4F0895990F0008550FAA0B80
:10107000E0E8FEEF16161706E807F907C0F01216AB
:101080001306E407F50798F0621B730B840B950BAE
:1010900039F40A2661F0232B242B252B21F4089503
:1010A0000A2609F4A140A6958FEF811D811D0895A0
:1010B00057FD9058440F551F59F05F3F71F0479509
:1010C000880F97FB991F61F09F3F79F087950895EE
:1010D000121613061406551FF2CF4695F1DF08C00D
:1010E000161617061806991FF1CF8695710561052A
:1010F00008940895E894BB2766277727CB0197F9D2
:1011000008950E94340808F48FEF08950E9499080A
:101110000C940A090E94FC0838F00E94030920F090
:10112000952311F00C94F3080C94F90811240C94F5
:101130007B080E94580870F3959FC1F3950F50E00B
:10114000551F629FF001729FBB27F00DB11D639F79
:10115000AA27F00DB11DAA1F649F6627B00DA11D1F
:10116000661F829F2227B00DA11D621F739FB00DC5
:10117000A11D621F839FA00D611D221F749F332735
:10118000A00D611D231F849F600D211D822F762FCE
:101190006A2F11249F5750409AF0F1F088234AF0AB
:1011A000EE0FFF1FBB1F661F771F881F9150504017
:1011B000A9F79E3F510580F00C94F3080C947B082E
:1011C0005F3FE4F3983ED4F3869577956795B7959E
:1011D000F795E7959F5FC1F7FE2B880F911D9695B8
:1011E000879597F9089597F99F6780E870E060E028
:1011F00008959FEF80EC089500240A9416161706B0
:1012000018060906089500240A94121613061406F7
:1012100005060895092E0394000C11F4882352F05A
:10122000BB0F40F4BF2B11F460FF04C06F5F7F4F12
:101230008F4F9F4F089597FB072E16F4009407D009
:1012400077FD09D00E942F0907FC05D03EF4909548
:1012500081959F4F0895709561957F4F0895AA1BC2
:10126000BB1B51E107C0AA1FBB1FA617B70710F091
:10127000A61BB70B881F991F5A95A9F780959095C3
:0A128000BC01CD010895F894FFCFE2
:08128A00F0CCAACFCF223422E0
:00000001FF
