S01900005061747465726E2047656E657261746F722E7372656366
S11300000C945A000C9477000C9477000C94F8002C
S11300100C941B010C943D010C9477000C94770014
S11300200C9477000C9477000C9477000C9468017E
S11300300C9477000C9477000C9477000C94770060
S11300400C9477000C9477000C9477000C94770050
S11300500C9477000C9477000C9477000C94770040
S11300600C9477000C9477000C9477000C94770030
S11300700C9477000C9477000C9477000C94770020
S11300800C9477000C9477000C9477000C94770010
S11300900C9477000C9477000C9477000C94770000
S11300A00C9477000C9477000C9477000C947700F0
S11300B00C94770011241FBECFEFD8E0DEBFCDBF74
S11300C011E0A0E0B1E0E4ECF3E002C005900D9291
S11300D0A830B107D9F721E0A8E0B1E001C01D9232
S11300E0A131B207E1F70E948C000C94E0010C945A
S11300F0000080910E01882349F010920E01809136
S11301000D01811106C08FEF9FEF089580E090E00C
S1130110089581E090E00895F8949EEF94B98FEFEC
S113012085B917B888B92FE72AB92BB98DB99EB903
S113013087E08093680081E080936B0080936C007B
S113014080E880936D0088E09CE39093890080931D
S11301508800E1E8F0E088E0808382E080936F002B
S113016085E0808378940FED1FEE80910C0181303F
S1130170A1F018F0823029F1FACFE09009018E2D18
S113018090E0EC01C050DF4FF8800E9479008F0DA1
S11301908F73888380958BB9E8CFC0910901D0E033
S11301A00E9479008C0F9D1F87709078992324F406
S11301B00197886F9F6F01968093090180958BB991
S11301C0D4CFC0910801D0E00E9479008C0F9D1F0C
S11301D081709078992324F401978E6F9F6F019614
S11301E080930801811102C01BB9BFCF0BB9BDCFE9
S11301F01F920F920FB60F9211242F938F939F93F8
S113020080910E01811103C081E080930D0181E092
S113021080930E012FEF82E597E0215080409040BB
S1130220E1F700C000009F918F912F910F900FBEB6
S11302300F901F9018951F920F920FB60F921124D2
S11302402F938F939F9380910E01811102C010927E
S11302500D0181E080930E012FEF82E597E021509C
S113026080409040E1F700C000009F918F912F9152
S11302700F900FBE0F901F9018951F920F920FB6FC
S11302800F9211242F935F936F937F938F939F9378
S1130290AF93BF9320910B0121110AC080910C01EF
S11302A090E0019663E070E00E94B80180930C0135
S11302B0209520930B01BF91AF919F918F917F91D6
S11302C06F915F912F910F900FBE0F901F90189513
S11302D01F920F920FB60F9211242F933F934F93B7
S11302E06F937F938F939F93EF93FF93F894609111
S11302F00A01E0E0F1E020E030E040E0819190E0AC
S1130300062E02C0959587950A94E2F78170992785
S1130310022E02C0880F991F0A94E2F7482B2F5F20
S11303203F4F2830310551F74093100188E0809306
S11303300F01440F45B980910A0190E0019687703E
S11303409078992324F40197886F9F6F0196809386
S11303500A017894FF91EF919F918F917F916F9112
S11303604F913F912F910F900FBE0F901F901895B2
S113037097FB072E16F4009407D077FD09D00E944E
S1130380CC0107FC05D03EF4909581959F4F0895CC
S1130390709561957F4F0895AA1BBB1B51E107C05F
S11303A0AA1FBB1FA617B70710F0A61BB70B881F01
S11303B0991F5A95A9F780959095BC01CD01089590
S10703C0F894FFCFDB
S10B03C46501FFF682003475A7
S9030000FC
